{
  "_format": "hh-sol-artifact-1",
  "contractName": "MyToken",
  "sourceName": "contracts/token.sol",
  "abi": [
    {
      "inputs": [],
      "stateMutability": "nonpayable",
      "type": "constructor"
    },
    {
      "anonymous": false,
      "inputs": [
        {
          "indexed": true,
          "internalType": "address",
          "name": "from",
          "type": "address"
        },
        {
          "indexed": true,
          "internalType": "address",
          "name": "to",
          "type": "address"
        },
        {
          "indexed": false,
          "internalType": "uint256",
          "name": "amount",
          "type": "uint256"
        }
      ],
      "name": "Transfer",
      "type": "event"
    },
    {
      "inputs": [
        {
          "internalType": "address",
          "name": "",
          "type": "address"
        }
      ],
      "name": "balanceOf",
      "outputs": [
        {
          "internalType": "uint256",
          "name": "",
          "type": "uint256"
        }
      ],
      "stateMutability": "view",
      "type": "function"
    },
    {
      "inputs": [],
      "name": "decimals",
      "outputs": [
        {
          "internalType": "uint8",
          "name": "",
          "type": "uint8"
        }
      ],
      "stateMutability": "view",
      "type": "function"
    },
    {
      "inputs": [],
      "name": "faucet",
      "outputs": [],
      "stateMutability": "nonpayable",
      "type": "function"
    },
    {
      "inputs": [
        {
          "internalType": "address",
          "name": "to",
          "type": "address"
        },
        {
          "internalType": "uint256",
          "name": "amount",
          "type": "uint256"
        }
      ],
      "name": "mint",
      "outputs": [],
      "stateMutability": "nonpayable",
      "type": "function"
    },
    {
      "inputs": [],
      "name": "name",
      "outputs": [
        {
          "internalType": "string",
          "name": "",
          "type": "string"
        }
      ],
      "stateMutability": "view",
      "type": "function"
    },
    {
      "inputs": [],
      "name": "symbol",
      "outputs": [
        {
          "internalType": "string",
          "name": "",
          "type": "string"
        }
      ],
      "stateMutability": "view",
      "type": "function"
    },
    {
      "inputs": [],
      "name": "totalSupply",
      "outputs": [
        {
          "internalType": "uint256",
          "name": "",
          "type": "uint256"
        }
      ],
      "stateMutability": "view",
      "type": "function"
    },
    {
      "inputs": [
        {
          "internalType": "address",
          "name": "to",
          "type": "address"
        },
        {
          "internalType": "uint256",
          "name": "amount",
          "type": "uint256"
        }
      ],
      "name": "transfer",
      "outputs": [
        {
          "internalType": "bool",
          "name": "",
          "type": "bool"
        }
      ],
      "stateMutability": "nonpayable",
      "type": "function"
    }
  ],
  "bytecode": "0x60806040526040518060400160405280600981526020017f54657374546f6b656e0000000000000000000000000000000000000000000000815250600090816100489190610420565b506040518060400160405280600381526020017f54546b00000000000000000000000000000000000000000000000000000000008152506001908161008d9190610420565b506012600260006101000a81548160ff021916908360ff1602179055503480156100b657600080fd5b506100f233600260009054906101000a900460ff1660ff16600a6100da9190610654565b6103e86100e7919061069f565b6100f760201b60201c565b61073f565b80600460008473ffffffffffffffffffffffffffffffffffffffff1673ffffffffffffffffffffffffffffffffffffffff168152602001908152602001600020600082825461014691906106e1565b92505081905550806003600082825461015f91906106e1565b925050819055508173ffffffffffffffffffffffffffffffffffffffff16600073ffffffffffffffffffffffffffffffffffffffff167fddf252ad1be2c89b69c2b068fc378daa952ba7f163c4a11628f55a4df523b3ef836040516101c49190610724565b60405180910390a35050565b600081519050919050565b7f4e487b7100000000000000000000000000000000000000000000000000000000600052604160045260246000fd5b7f4e487b7100000000000000000000000000000000000000000000000000000000600052602260045260246000fd5b6000600282049050600182168061025157607f821691505b6020821081036102645761026361020a565b5b50919050565b60008190508160005260206000209050919050565b60006020601f8301049050919050565b600082821b905092915050565b6000600883026102cc7fffffffffffffffffffffffffffffffffffffffffffffffffffffffffffffffff8261028f565b6102d6868361028f565b95508019841693508086168417925050509392505050565b6000819050919050565b6000819050919050565b600061031d610318610313846102ee565b6102f8565b6102ee565b9050919050565b6000819050919050565b61033783610302565b61034b61034382610324565b84845461029c565b825550505050565b600090565b610360610353565b61036b81848461032e565b505050565b5b8181101561038f57610384600082610358565b600181019050610371565b5050565b601f8211156103d4576103a58161026a565b6103ae8461027f565b810160208510156103bd578190505b6103d16103c98561027f565b830182610370565b50505b505050565b600082821c905092915050565b60006103f7600019846008026103d9565b1980831691505092915050565b600061041083836103e6565b9150826002028217905092915050565b610429826101d0565b67ffffffffffffffff811115610442576104416101db565b5b61044c8254610239565b610457828285610393565b600060209050601f83116001811461048a5760008415610478578287015190505b6104828582610404565b8655506104ea565b601f1984166104988661026a565b60005b828110156104c05784890151825560018201915060208501945060208101905061049b565b868310156104dd57848901516104d9601f8916826103e6565b8355505b6001600288020188555050505b505050505050565b7f4e487b7100000000000000000000000000000000000000000000000000000000600052601160045260246000fd5b60008160011c9050919050565b6000808291508390505b600185111561057857808604811115610554576105536104f2565b5b60018516156105635780820291505b808102905061057185610521565b9450610538565b94509492505050565b600082610591576001905061064d565b8161059f576000905061064d565b81600181146105b557600281146105bf576105ee565b600191505061064d565b60ff8411156105d1576105d06104f2565b5b8360020a9150848211156105e8576105e76104f2565b5b5061064d565b5060208310610133831016604e8410600b84101617156106235782820a90508381111561061e5761061d6104f2565b5b61064d565b610630848484600161052e565b92509050818404811115610647576106466104f2565b5b81810290505b9392505050565b600061065f826102ee565b915061066a836102ee565b92506106977fffffffffffffffffffffffffffffffffffffffffffffffffffffffffffffffff8484610581565b905092915050565b60006106aa826102ee565b91506106b5836102ee565b92508282026106c3816102ee565b915082820484148315176106da576106d96104f2565b5b5092915050565b60006106ec826102ee565b91506106f7836102ee565b925082820190508082111561070f5761070e6104f2565b5b92915050565b61071e816102ee565b82525050565b60006020820190506107396000830184610715565b92915050565b610a9a8061074e6000396000f3fe608060405234801561001057600080fd5b50600436106100885760003560e01c806370a082311161005b57806370a082311461010357806395d89b4114610133578063a9059cbb14610151578063de5f72fd1461018157610088565b806306fdde031461008d57806318160ddd146100ab578063313ce567146100c957806340c10f19146100e7575b600080fd5b61009561018b565b6040516100a291906105b6565b60405180910390f35b6100b3610219565b6040516100c091906105f1565b60405180910390f35b6100d161021f565b6040516100de9190610628565b60405180910390f35b61010160048036038101906100fc91906106d2565b610232565b005b61011d60048036038101906101189190610712565b61030b565b60405161012a91906105f1565b60405180910390f35b61013b610323565b60405161014891906105b6565b60405180910390f35b61016b600480360381019061016691906106d2565b6103b1565b604051610178919061075a565b60405180910390f35b6101896104f0565b005b60008054610198906107a4565b80601f01602080910402602001604051908101604052809291908181526020018280546101c4906107a4565b80156102115780601f106101e657610100808354040283529160200191610211565b820191906000526020600020905b8154815290600101906020018083116101f457829003601f168201915b505050505081565b60035481565b600260009054906101000a900460ff1681565b80600460008473ffffffffffffffffffffffffffffffffffffffff1673ffffffffffffffffffffffffffffffffffffffff16815260200190815260200160002060008282546102819190610804565b92505081905550806003600082825461029a9190610804565b925050819055508173ffffffffffffffffffffffffffffffffffffffff16600073ffffffffffffffffffffffffffffffffffffffff167fddf252ad1be2c89b69c2b068fc378daa952ba7f163c4a11628f55a4df523b3ef836040516102ff91906105f1565b60405180910390a35050565b60046020528060005260406000206000915090505481565b60018054610330906107a4565b80601f016020809104026020016040519081016040528092919081815260200182805461035c906107a4565b80156103a95780601f1061037e576101008083540402835291602001916103a9565b820191906000526020600020905b81548152906001019060200180831161038c57829003601f168201915b505050505081565b600081600460003373ffffffffffffffffffffffffffffffffffffffff1673ffffffffffffffffffffffffffffffffffffffff168152602001908152602001600020541015610435576040517f08c379a000000000000000000000000000000000000000000000000000000000815260040161042c90610884565b60405180910390fd5b81600460008573ffffffffffffffffffffffffffffffffffffffff1673ffffffffffffffffffffffffffffffffffffffff168152602001908152602001600020546104809190610804565b508273ffffffffffffffffffffffffffffffffffffffff163373ffffffffffffffffffffffffffffffffffffffff167fddf252ad1be2c89b69c2b068fc378daa952ba7f163c4a11628f55a4df523b3ef846040516104de91906105f1565b60405180910390a36001905092915050565b61052433600260009054906101000a900460ff1660ff16600a61051391906109d7565b600a61051f9190610a22565b610232565b565b600081519050919050565b600082825260208201905092915050565b60005b83811015610560578082015181840152602081019050610545565b60008484015250505050565b6000601f19601f8301169050919050565b600061058882610526565b6105928185610531565b93506105a2818560208601610542565b6105ab8161056c565b840191505092915050565b600060208201905081810360008301526105d0818461057d565b905092915050565b6000819050919050565b6105eb816105d8565b82525050565b600060208201905061060660008301846105e2565b92915050565b600060ff82169050919050565b6106228161060c565b82525050565b600060208201905061063d6000830184610619565b92915050565b600080fd5b600073ffffffffffffffffffffffffffffffffffffffff82169050919050565b600061067382610648565b9050919050565b61068381610668565b811461068e57600080fd5b50565b6000813590506106a08161067a565b92915050565b6106af816105d8565b81146106ba57600080fd5b50565b6000813590506106cc816106a6565b92915050565b600080604083850312156106e9576106e8610643565b5b60006106f785828601610691565b9250506020610708858286016106bd565b9150509250929050565b60006020828403121561072857610727610643565b5b600061073684828501610691565b91505092915050565b60008115159050919050565b6107548161073f565b82525050565b600060208201905061076f600083018461074b565b92915050565b7f4e487b7100000000000000000000000000000000000000000000000000000000600052602260045260246000fd5b600060028204905060018216806107bc57607f821691505b6020821081036107cf576107ce610775565b5b50919050565b7f4e487b7100000000000000000000000000000000000000000000000000000000600052601160045260246000fd5b600061080f826105d8565b915061081a836105d8565b9250828201905080821115610832576108316107d5565b5b92915050565b7f496e73756666696369656e742062616c616e6365000000000000000000000000600082015250565b600061086e601483610531565b915061087982610838565b602082019050919050565b6000602082019050818103600083015261089d81610861565b9050919050565b60008160011c9050919050565b6000808291508390505b60018511156108fb578086048111156108d7576108d66107d5565b5b60018516156108e65780820291505b80810290506108f4856108a4565b94506108bb565b94509492505050565b60008261091457600190506109d0565b8161092257600090506109d0565b8160018114610938576002811461094257610971565b60019150506109d0565b60ff841115610954576109536107d5565b5b8360020a91508482111561096b5761096a6107d5565b5b506109d0565b5060208310610133831016604e8410600b84101617156109a65782820a9050838111156109a1576109a06107d5565b5b6109d0565b6109b384848460016108b1565b925090508184048111156109ca576109c96107d5565b5b81810290505b9392505050565b60006109e2826105d8565b91506109ed836105d8565b9250610a1a7fffffffffffffffffffffffffffffffffffffffffffffffffffffffffffffffff8484610904565b905092915050565b6000610a2d826105d8565b9150610a38836105d8565b9250828202610a46816105d8565b91508282048414831517610a5d57610a5c6107d5565b5b509291505056fea26469706673582212205c766dfde64e4ef6d880c3f2f0896e28245141b24260364b561fb6ca79176abc64736f6c634300081c0033",
  "linkReferences": {},
  "deployedLinkReferences": {}
}